00000001CLI001ACME Corporation SpA                                                            Rossi               Mario               Via Rossi 101                           Milano                                  MI 01-12345001         331-1234001         255                                                                                                                                                                                                                                                            ROSMAR80A01F201X1234000112345679000     000000001300 120100255                                                                                                                                                                                                                                                            COS001BAN001Express shipping              PAG001 0SPO001 100000000525000000001Pending                                 20250202 0Ing.                 1PROMO1 1255                                                                                                                                                                                                                                                            Via Rossi 101                           Milano                                  MI 20100ACME Corporation SpA                                                            Building B          0000000100000001Record 1 - Mario Rossi from Milano                                                                                                                                                                                                                             
00000002CLI002Beta Industries Srl                                                             Verdi               Luigi               Via Verdi 102                           Roma                                    RM 02-12345002         332-1234002         255                                                                                                                                                                                                                                                            VERLUI80A01F202X1234000212345680000     000000001400 000100255                                                                                                                                                                                                                                                            COS002BAN002Premium shipping              PAG002 1SPO002 000000000550000000002Inactive                                20250303 1Prof.                0PROMO2 0255                                                                                                                                                                                                                                                            Via Verdi 102                           Roma                                    RM 00100Beta Industries Srl                                                             Building C          0000000200000002Record 2 - Luigi Verdi from Roma                                                                                                                                                                                                                               
00000003CLI003Gamma Solutions Ltd                                                             Bianchi             Anna                Via Bianchi 103                         Napoli                                  NA 03-12345003         333-1234003         255                                                                                                                                                                                                                                                            BIAANN80A01F203X1234000312345681000     000000001500 180100255                                                                                                                                                                                                                                                            COS003BAN003Standard shipping             PAG003 0SPO003 100000000575000000003Active                                  20250404 0Sig.                 1PROMO3 1255                                                                                                                                                                                                                                                            Via Bianchi 103                         Napoli                                  NA 80100Gamma Solutions Ltd                                                             Building D          0000000300000003Record 3 - Anna Bianchi from Napoli                                                                                                                                                                                                                            
00000004CLI004Delta Manufacturing                                                             Neri                Paolo               Via Neri 104                            Torino                                  TO 04-12345004         334-1234004         255                                                                                                                                                                                                                                                            NERPAO80A01F204X1234000412345682000     000000001600 010100255                                                                                                                                                                                                                                                            COS004BAN004Express shipping              PAG004 1SPO004 000000000600000000004Pending                                 20250505 1Dott.                0PROMO4 0255                                                                                                                                                                                                                                                            Via Neri 104                            Torino                                  TO 10100Delta Manufacturing                                                             Building E          0000000400000004Record 4 - Paolo Neri from Torino                                                                                                                                                                                                                              
00000005CLI005Epsilon Services SA                                                             Ferrari             Maria               Via Ferrari 105                         Bologna                                 BO 05-12345005         335-1234005         255                                                                                                                                                                                                                                                            FERMAR80A01F205X1234000512345683000     000000001700 140100255                                                                                                                                                                                                                                                            COS005BAN005Premium shipping              PAG005 0SPO005 100000000625000000005Inactive                                20250606 0Ing.                 1PROMO5 1255                                                                                                                                                                                                                                                            Via Ferrari 105                         Bologna                                 BO 40100Epsilon Services SA                                                             Building A          0000000500000005Record 5 - Maria Ferrari from Bologna                                                                                                                                                                                                                          
