00000001CLI001ACME Corporation SpA                                                            Rossi               Mario               Via Roma 123                            Milano                                  MI 02-12345678         335-1234567         255                                                                                                                                                                                                                                                            RSSMRA80A01F205X1234567812345678901     000000001200 120100255                                                                                                                                                                                                                                                            COS001BAN001Standard shipping method      PAG001 0SPO001 100000000500000000001Active                                  20251231 0Dott.                0PROMO1 1255                                                                                                                                                                                                                                                            Via Roma 123                            Milano                                  MI 20100ACME Corporation SpA                                                            Building A          0000000100000001Various information here                                                                                                                                                                                                                                       
00000002CLI001ACME Corporation SpA                                                            Rossi               Mario               Via Roma 123                            Milano                                  MI 02-12345678         335-1234567         255                                                                                                                                                                                                                                                            RSSMRA80A01F205X1234567812345678901     000000001200 120100255                                                                                                                                                                                                                                                            COS001BAN001Standard shipping method      PAG001 0SPO001 100000000500000000001Active                                  20251231 0Dott.                0PROMO1 1255                                                                                                                                                                                                                                                            Via Roma 123                            Milano                                  MI 20100ACME Corporation SpA                                                            Building A          0000000100000001Various information here                                                                                                                                                                                                                                       
00000003CLI001ACME Corporation SpA                                                            Rossi               Mario               Via Roma 123                            Milano                                  MI 02-12345678         335-1234567         255                                                                                                                                                                                                                                                            RSSMRA80A01F205X1234567812345678901     000000001200 120100255                                                                                                                                                                                                                                                            COS001BAN001Standard shipping method      PAG001 0SPO001 100000000500000000001Active                                  20251231 0Dott.                0PROMO1 1255                                                                                                                                                                                                                                                            Via Roma 123                            Milano                                  MI 20100ACME Corporation SpA                                                            Building A          0000000100000001Various information here                                                                                                                                                                                                                                       
